:020000040000FA
:0400000072EF00F0AB
:0600080065822DED09F0F8
:100018006580D8CF10F0E8CF11F0E0CF12F0D9CF3B
:1000280013F0DACF14F09EAA1CEF00F01EEF00F0D8
:1000380066EF00F0ABA423EF00F025EF00F028EF07
:1000480000F0AE5065EF00F0ABA22DEF00F02FEFFF
:1000580000F033EF00F0AB98AB8865EF00F0AECF5F
:1000680015F00001CF51D8A43CEF00F03EEF00F0AE
:1000780065EF00F00D0E1518D8A445EF00F047EF16
:1000880000F059EF00F0840ECE25D96EDA6A010E21
:10009800DA22DF6A0D0EC7EC0CF00A0EC7EC0CF082
:1000A800010E0001CF6F65EF00F0840ECE25D96EEA
:1000B800DA6A010EDA2215C0DFFFCE2B1550C7EC25
:1000C8000CF09E9A14C0DAFF13C0D9FF12C0E0FFEB
:1000D80011C0E8FF10C0D8FF6590100036EF0BF094
:10060000004150504C4520783D257520793D257599
:100610000D0A004150504C453D25752C2025750D87
:100620000A004150504C4520454154454E0D0A00AA
:1006300047414D452053544152540D0A0047414D06
:1006400045204F5645520D0A00736565643D25757A
:100650000D0A00535441544520310D0A00535441B2
:10066000544520320D0A00535441544520330D0A9D
:100670000025752C25750D0A00554152540D0A00B0
:1006800054494D450D0A004D41494E0D0A002C0DAF
:030690000A00005D
:100694000001CC6BCD6BC36B010EC46F000EC96F30
:1006A400000EC86FC851020DF350D40FD96EDA6A28
:1006B400FF0EDF6EC851020DF350D50FD96EDA6A02
:1006C400FF0EDF6EC84BC92BC9BF72EF03F0C951CF
:1006D40009E1050EC85DD8A072EF03F074EF03F0D2
:1006E40054EF03F077EC0CF0000E176E330E166E19
:1006F400000E196E000E186E000E1B6E010E1A6E9F
:10070400000E1D6E000E1C6E25EC0CF0A5EC0CF01A
:10071400030E556E080E546E770EE82EFED7542E37
:10072400FCD7552EFAD700000001D351D8B49DEF61
:1007340003F09FEF03F096EF03F0E3EC0CF08C88EA
:10074400300E196E1950D8A4060E1A6E000E1C6EC7
:100754000C0E1B6EB6EC0AF00001CF51D8B4B5EF05
:1007640003F0B7EF03F0DBEF03F0840E296E010E04
:100774002A6E79EC08F00001CF6B000EC76F000EF3
:10078400C66F840EC625D96E010EC721DA6EDF6AE4
:10079400C64BC72BC7BFD8EF03F0C75109E1200EE2
:1007A400C65DD8A0D8EF03F0DAEF03F0C3EF03F08F
:1007B400CE6BD051D8B4E1EF03F0E3EF03F09DEF3B
:1007C40004F0C451D8B4E9EF03F0EBEF03F012EFF7
:1007D40004F0CC0E4D6ECD0E4E6ED40E4F6E030E45
:1007E400506E89EC06F00001C56BFAEF03F0C52BDF
:1007F400E251C55DD8A001EF04F003EF04F0F9EF76
:1008040003F0510EE225D96EDA6A010EDA221F0EC8
:10081400E225D96EDA6A010EDA22C46B1EEF04F007
:10082400510EE225D96EDA6A010EDA221F0EE22594
:10083400D96EDA6A010EDA22A30E3B6E130E3C6EF9
:10084400CCC03DF03E6ACDC03FF0406A5DEC0CF098
:10085400A30E196E1A6AA30E166E8EEC0CF016C057
:100864001BF017C01CF0B6EC0AF0000E0001CB6FB1
:10087400000ECA6FA30E3B6E710E3C6ECA51020D80
:10088400F350D40FD96EDA6ADF50546E54503D6E73
:100894003E6ACA51020DF350D50FD96EDA6ADF50A1
:1008A400556E55503F6E406A5DEC0CF0A30E196E08
:1008B4001A6AA30E166E8EEC0CF016C01BF017C04D
:1008C4001CF0B6EC0AF00001CA4BCB2BCBBF74EF83
:1008D40004F0CB5109E1030ECA5DD8A074EF04F013
:1008E40076EF04F03CEF04F00D0EB9EC0CF00A0EB8
:1008F400B9EC0CF0CDC016F0D40E176E0001CC513B
:10090400AAEC0BF00009D8B48AEF04F08CEF04F0E1
:100914009BEF04F0220E196E1950D8A4060E1A6E1D
:10092400000E1C6E0B0E1B6EB6EC0AF0010E0001DD
:10093400D26F0001D06BD251D8B4A3EF04F0A5EF6D
:1009440004F0B7EF04F0CC0E4D6ECD0E4E6ED40E07
:100954004F6E030E506E89EC06F0000E176E020EF9
:10096400166E5FEC0BF00001D26BD151D8B4BDEF21
:1009740004F0BFEF04F0AEEF03F0870E196E1950C8
:10098400D8A4060E1A6E000E1C6E060E1B6EB6EC74
:100994000AF008EC0CF0959E8C8ECDEF04F072EF0B
:1009A40000F0236EB6EF05F02350D8A4DCEF04F07A
:1009B400DEEF04F0F0EF04F0010E0001D16F606A85
:1009C400790E196E1950D8A4060E1A6E000E1C6EFC
:1009D400060E1B6EB6EC0AF0CFEF05F05F6A520EFE
:1009E400166E010E176E000E196E000E186E000EB4
:1009F4001B6E320E1A6E41EC0CF0200E166E010EB8
:100A0400176E000E196E000E186E000E1B6E320E5D
:100A14001A6E41EC0CF0010E606E530E196E1950F3
:100A2400D8A4060E1A6E000E1C6E090E1B6EB6ECD0
:100A34000AF0CFEF05F05FB022EF05F024EF05F0E8
:100A440037EF05F05FC016F0176A000E196E020E3C
:100A5400186E18EC08F0520E1624D96E010E1720E9
:100A6400DA6E23C0DFFF48EF05F05FC016F0176AA7
:100A7400000E196E020E186E18EC08F0200E1624E3
:100A8400D96E010E1720DA6E23C0DFFF5D0E196EDA
:100A94001950D8A4060E1A6E000E1C6E090E1B6E99
:100AA400B6EC0AF05F2A0001E251020D5F50206E9D
:100AB400216AF350205C2150800A226EF450800A8F
:100AC4002258D8A068EF05F06AEF05F0CFEF05F0E3
:100AD400000E256E000E246E90EF05F0520E2424B5
:100AE400D96E010E2520DA6E2450020DF350D40F76
:100AF400E16EE26ADFCFE7FF200E2424D96E010EF7
:100B04002520DA6E2450020DF350D50FE16EE26A0F
:100B1400DFCFE7FF010ED06F244A252AE251206E71
:100B2400216A2050245C2550800A226E2150800ABC
:100B34002258D8A0A0EF05F0A2EF05F070EF05F061
:100B4400606ACFEF05F0010E0001D06F670E196ED9
:100B54001950D8A4060E1A6E000E1C6E090E1B6ED8
:100B6400B6EC0AF0A2EF05F06050206E216A215025
:100B7400000AD8B4C0EF05F0CFEF05F02050000A0A
:100B8400D8B4D6EF04F0010AD8B41DEF05F0030A77
:100B9400D8B4A5EF05F0CFEF05F012002E50D96EB2
:100BA400DA6ADFCFF6FF060EF76E0800F550250A65
:100BB400D8A4DFEF05F0E1EF05F077EF06F02E5053
:100BC400D96EDA6ADF2A000E596E000E586E58C0CC
:100BD4005EF05A685B682E50D96EDA6ADF50356E63
:100BE40035C0F6FF060EF76E0800F550750AD8A456
:100BF400FEEF05F000EF06F071EF06F02F50D96E0E
:100C0400DA6A020EDF26DF5CD96EDA6ADECF31F0F3
:100C1400DECF32F02E50D96EDA6A3528DF6E65EFFA
:100C240006F0200E366E3606000E3624D96EDA6AC9
:100C3400010EDA2231C028F032C029F0000E2B6EEA
:100C44000A0E2A6E24EC0AF02850300FDF6E31C0F1
:100C540016F032C017F0000E196E0A0E186E7FECF3
:100C640009F016C031F017C032F031503210D8B448
:100C74003EEF06F040EF06F05AEF06F03650D8A4E7
:100C840046EF06F048EF06F015EF06F05AEF06F0CF
:100C9400000E3624D96EDA6A010EDA22DF50306E85
:100CA4003050166E176A2DC018F0D8EC08F0362AAA
:100CB400200E3618D8A461EF06F063EF06F04AEF71
:100CC40006F088EF06F035C0F6FF060EF76E080052
:100CD400F550750AD8B413EF06F071EF06F02E50F4
:100CE400D96EDA6ADF2A88EF06F02E50D96EDA6AF6
:100CF400DFCFF6FF060EF76E0800F550166E176A82
:100D04002DC018F0D8EC08F071EF06F012000001C5
:100D1400A06BF4EF06F04D50D96EDA6AB9EC09F025
:100D240022C028F023C029F0000E2B6E1E0E2A6E5E
:100D340024EC0AF02850DF6E4E50D96EDA6AB9EC12
:100D440009F022C028F023C029F0000E2B6E140EE7
:100D54002A6E24EC0AF02850DF6E010E0001A06F09
:100D6400000EA26F000EA16FE2EF06F04D50D96E97
:100D7400DA6AA151020D4F50F324E16EE26ADE50AB
:100D8400E618D8A4C8EF06F0CAEF06F0E0EF06F0C4
:100D94004E50D96EDA6AA151020D4F50F324E16E20
:100DA400E26A010EE126DE50E618D8A4DCEF06F074
:100DB400DEEF06F0E0EF06F089EF06F0A14BA22B80
:100DC4005050516E526A5150A15DA251800A536E27
:100DD4005250800A5358D8A0F2EF06F0F4EF06F010
:100DE400B8EF06F0A051D8B4FAEF06F0FCEF06F025
:100DF4008DEF06F0800E3B6E010E3C6E4D50D96EA9
:100E0400DA6ADF50516E51503D6E3E6A4E50D96ED3
:100E1400DA6ADF50526E52503F6E406A5DEC0CF05D
:100E2400800E196E1A6A800E166E8EEC0CF016C0C7
:100E34001BF017C01CF0B6EC0AF01200000E1D6E79
:100E4400000E1C6E1B6A29EF07F0164A172A16C0FB
:100E5400D9FF17C0DAFF200EDE18D8B434EF07F03C
:100E640036EF07F027EF07F016C0D9FF17C0DAFFF7
:100E7400DF50186EF70E1826040E186444EF07F0BE
:100E840046EF07F027EF07F016C0D9FF17C0DAFFC7
:100E94002D0EDE18D8A451EF07F053EF07F059EFE9
:100EA40007F0010E1B6E164A172A83EF07F016C0CF
:100EB400D9FF17C0DAFF2B0EDE18D8A464EF07F0B1
:100EC40066EF07F083EF07F055EF07F00A0E1C02F8
:100ED400F3CF18F0F4CF19F01D02F350192616C001
:100EE400D9FF17C0DAFFDF501A6E1A50185E000ED1
:100EF400195A300E18241C6E000E19201D6E55EF61
:100F040007F016C0D9FF17C0DAFFDF50186ED00EF5
:100F14001826090E186491EF07F093EF07F068EFB5
:100F240007F01B50D8A499EF07F09BEF07F0A9EF47
:100F340007F01CC018F01DC019F0181E191E184A1D
:100F4400192A18C016F019C017F0ADEF07F01CC02D
:100F540016F01DC017F0120020502110D8A4B5EFD0
:100F640007F0B7EF07F0CAEF07F056C020F057C0FC
:100F740021F020502110D8A4C2EF07F0C4EF07F0ED
:100F8400CAEF07F0000E206E000E216E17EF08F076
:100F940020C01AF021C01BF022C01CF056EC0AF04D
:100FA4001A5020261B50212220C0D9FF21C0DAFF6D
:100FB400DF50D8A4E0EF07F0E2EF07F0ECEF07F022
:100FC400000E566E000E576E56C020F057C021F02A
:100FD40017EF08F020C01AF021C01BF022C01CF04B
:100FE40086EC0AF01A502024566E1B502120576EAE
:100FF40056C0D9FF57C0DAFFDF50D8B404EF08F069
:1010040006EF08F00FEF08F056C0D9FF57C0DAFF1B
:10101400DF6A564A572A13EF08F0000E566E000E88
:10102400576E20C020F021C021F012001B6A19BEA7
:1010340020EF08F01EEF08F026EF08F0186C191ED8
:10104400D8B0192A010E1B6E17BE2DEF08F02BEF36
:1010540008F033EF08F0166C171ED8B0172A010EEB
:101064001B1A000E1D6E000E1C6E18501910D8B4F9
:101074003EEF08F040EF08F068EF08F0010E1A6E3A
:1010840048EF08F0D890183619361A2A19AE4DEFE1
:1010940008F04FEF08F044EF08F0D8901C361D36E6
:1010A4001850165C19501758D8A05BEF08F05DEF84
:1010B40008F062EF08F01850165E1950175A1C8099
:1010C400D890193218321A2E4FEF08F01B50D8B4AA
:1010D4006EEF08F070EF08F074EF08F01C6C1D1E42
:1010E400D8B01D2A1CC016F01DC017F0120029C06C
:1010F400D9FF2AC0DAFF470EDE18D8A484EF08F01F
:1011040086EF08F08BEF08F0000ED3EC04F0D7EF75
:1011140008F029C0D9FF2AC0DAFF530EDE18D8A47C
:1011240096EF08F098EF08F0D7EF08F0366A020E51
:101134002924326E000E2A20336E32C020F033C0D0
:1011440021F08E0E226EAEEC07F020C037F021C0E5
:1011540038F0CAEF08F037C016F038C017F020ECAA
:1011640007F016C034F017C035F036502C0FD96E86
:10117400DA6A34C0DFFF362A000E206E000E216EBC
:101184008E0E226EAEEC07F020C037F021C038F08E
:1011940037503810D8A4D1EF08F0D3EF08F0ADEFF2
:1011A40008F02C0E266ECAEC0BF012001850D8B4BE
:1011B400DEEF08F0E0EF08F0E8EF08F01850D8A4EC
:1011C400E6EF08F0E8EF08F0EDEF08F0165000EC59
:1011D4000DF02CEF09F01850D96EDA6A090ED926F1
:1011E400DE50DE10D8B4F9EF08F0FBEF08F014EF8E
:1011F40009F01850D96EDA6A090ED9261850E16E32
:10120400E26A020EE126DE50E65CE650800A1D6EBC
:10121400DE50800A1D58D8B012EF09F014EF09F01F
:101224002CEF09F01850D96EDA6A020ED926DF5075
:10123400196E1850D96EDA6ADF501924D96EDA6A39
:1012440016C0DFFF1850D96EDA6A020ED926DE2ADC
:10125400000EDD2212000600E1CF09F0E2CF0AF011
:10126400F6CF0BF0F7CF0CF0F8CF0DF0F5CF0EF072
:10127400F2A43FEF09F041EF09F066EF09F0E10E47
:10128400D76E7C0ED66E5C4A5D2A5D5009E1780EFD
:101294005C5CD8A050EF09F052EF09F065EF09F05B
:1012A400000E5D6E000E5C6E800E026E0250D8A4BD
:1012B400060E036E000E056E060E046EE1EC0AF0D7
:1012C400010E0001D16FF294F2A26BEF09F06DEF01
:1012D40009F071EF09F0010E0001D36FF2920EC014
:1012E400F5FF0DC0F8FF0CC0F7FF0BC0F6FF0AC0F6
:1012F400E2FF09C0E1FF65921100000E1B6E000EB3
:101304001A6E18501910D8B48AEF09F08CEF09F04E
:10131400B4EF09F0010E1C6E94EF09F0D890183662
:1013240019361C2A19AE99EF09F09BEF09F090EFDA
:1013340009F0D8901A361B361850165C19501758F5
:10134400D8A0A7EF09F0A9EF09F0AEEF09F0185003
:10135400165E1950175A1A80D890193218321C2E5A
:101364009BEF09F01AC016F01BC017F0120061C001
:1013740016F062C017F063C018F064C019F02D0EA7
:101384001A6E7F0E1B6E950E1C6E4C0E1D6EEFECCE
:1013940009F0010E1624616E000E1720626E000E15
:1013A4001820636E000E1920646E61C024F062C0C0
:1013B40025F063C026F064C027F0120EE7EF09F0B1
:1013C400D8902732263225322432E82EE2EF09F073
:1013D40024C022F025C023F01200000E1E6E000E61
:1013E4001F6E000E206E000E216E16A0FCEF09F099
:1013F400FEEF09F006EF0AF01A501E261B501F22BA
:101404001C5020221D502122D8901A361B361C361F
:101414001D36D8901932183217321632165017105A
:1014240018101910D8A419EF0AF01BEF0AF0F7EFFF
:1014340009F01EC016F01FC017F020C018F021C01C
:1014440019F012002A502B10D8B42BEF0AF02DEF0C
:101454000AF051EF0AF0010E2C6E35EF0AF0D89025
:101464002A362B362C2A2BAE3AEF0AF03CEF0AF040
:1014740031EF0AF02A50285C2B502958D8A045EFA8
:101484000AF047EF0AF04BEF0AF02A50285E2B507F
:10149400295AD8902B322A322C2E3CEF0AF028C03D
:1014A40028F029C029F01200000E1F6E000E1E6ED7
:1014B40060EF0AF01A4A1B2A1E4A1F2A1AC0D9FFD3
:1014C4001BC0DAFFDF50D8B46AEF0AF06CEF0AF001
:1014D40081EF0AF01CC016F01AC0D9FF1BC0DAFF56
:1014E400DF501D6E1D50176E186A86EC0BF0000954
:1014F400D8A47FEF0AF081EF0AF05CEF0AF01EC077
:101504001AF01FC01BF01200000E1F6E000E1E6E9C
:1015140090EF0AF01A4A1B2A1E4A1F2A1AC0D9FF42
:101524001BC0DAFFDF50D8B49AEF0AF09CEF0AF040
:10153400B1EF0AF01CC016F01AC0D9FF1BC0DAFFC5
:10154400DF501D6E1D50176E186A86EC0BF00009F3
:10155400D8B4AFEF0AF0B1EF0AF08CEF0AF01EC076
:101564001AF01FC01BF012001F6AD2EF0AF01F50BE
:1015740019241D6E000E1A201E6E1DC0F6FF1EC01B
:10158400F7FFF86A050EF76403D00800F55005D09C
:10159400F6CFE1FFF7CFE2FFE750B9EC0CF01F2ADA
:1015A4001F501D6E1E6A1B501D5C1C501E58D8A077
:1015B400DEEF0AF0E0EF0AF0B9EF0AF01200086A71
:1015C400FDEF0AF008500224066E000E0320076E99
:1015D40006C0F6FF07C0F7FFF86A050EF76403D0EC
:1015E4000800F55005D0F6CFE1FFF7CFE2FFE75052
:1015F400D5EC0CF0082A0850066E076A0450065C05
:1016040005500758D8A009EF0BF00BEF0BF0E4EFEF
:101614000AF01200CE50CFCF4DF04E6A4DC04EF0BE
:101624004D6A4D100001A06F4E50A16FA0C016F07E
:10163400A1C017F0F0EC0CF0800E3B6E490E3C6E2E
:10164400A0C03DF0A1C03EF05DEC0CF0800E196E20
:101654001A6A800E166E8EEC0CF016C01BF017C0C2
:101664001CF0B6EC0AF01200FA0EF66E190EF76EC4
:10167400000EF86E00EEDEF010EE05F00900F5CF76
:10168400EEFFE550E150FAE101EE00F0A40EEE6A3F
:10169400E806FDE100EECEF0100EEE6AE806FDE18C
:1016A40000EE56F00F0EEE6AE806FDE165906592D5
:1016B400000EF86E00014AEF03F016041710D8A4C8
:1016C40066EF0BF068EF0BF06CEF0BF08C8A8C9AE2
:1016D40085EF0BF0020E16181710D8A474EF0BF058
:1016E40076EF0BF07AEF0BF08C8C8C9C85EF0BF083
:1016F40016501710D8A481EF0BF083EF0BF085EF91
:101704000BF08C8E8C9E120016C0F6FF060EF76E40
:101714000800F5501718D8A492EF0BF094EF0BF0D3
:1017240097EF0BF01650A9EF0BF0162A1604196E5A
:1017340019C0F6FF060EF76E0800F5500009D8A48C
:10174400A6EF0BF0A8EF0BF086EF0BF0000E1200E3
:10175400196E1750D96EDA6A1950DE18D8A4B5EF8D
:101764000BF0B7EF0BF0C8EF0BF01750D96EDA6A35
:10177400010ED9261650DE18D8A4C3EF0BF0C5EF1E
:101784000BF0C8EF0BF0010EC9EF0BF0000E1200C6
:10179400010ED3EC04F0000E286E000E276E2650C6
:1017A4002724D96EDA6ADF50D3EC04F0274A282ABA
:1017B40028BEE6EF0BF0285009E1060E275CD8A0FE
:1017C400E6EF0BF0E8EF0BF0D1EF0BF0120038C0AE
:1017D4003AF0F5EF0BF037C02DF03A0E2E6E39C00B
:1017E4002FF0D0EC05F03AC0F6FF060EF76E0800B5
:1017F400F5500009D8A401EF0CF003EF0CF0EDEF65
:101804000BF0000E386E000E376E1200000EB9ECAD
:101814000CF0000E176E000E166E5FEC0BF0800ECF
:101824003B6E3D0E3C6E5DEC0CF0800E196E1A6A38
:10183400800E166E8EEC0CF016C01BF017C01CF058
:10184400B6EC0AF01200948E948C1750B06E16C049
:10185400AFFFAB88AB8E1CB002D0B89601D0B8866F
:1018640018B002D0AC9801D0AC881AB002D0AC94B5
:1018740001D0AC84AC8A9F9A9D8A9E9A120016C0AD
:101884001CF017C01DF04FEF0CF01CC0D9FF1DC099
:10189400DAFF18C0DFFF1C4A1D2A1A06D8A01B064F
:1018A4001A2806E11B28D8A45AEF0CF05CEF0CF0C0
:1018B40047EF0CF012003D0E416E3BC042F0000EAB
:1018C400456E000E446E000E4C6E000E4B6E420EC2
:1018D400376E3CC038F0410E396EE9EC0BF03B50EA
:1018E4004424D96EDA6ADF6A1200D39E700ED312D2
:1018F400030ED3120F0EC16E93808A90F288F29277
:1019040095988C98959A8C9A959C8C9C959E8C9E77
:10191400D08EF28EF28C120016C018F093EF0CF0F9
:10192400162A1650D96EDA6ADF50D8A49CEF0CF050
:101934009EEF0CF092EF0CF01850165C166E176ABE
:1019440016BE17061200D596070ED512D59CD59A49
:10195400F294F184D58EE10ED76E7C0ED66ECD5006
:10196400CF0B1009CD6ECD86CD92CD801200166EB0
:10197400BDEF0CF00000ACA2C2EF0CF0C4EF0CF011
:10198400BCEF0CF016C0ADFF12000F6ECBEF0CF0E5
:101994000000ACA2D0EF0CF0D2EF0CF0CAEF0CF0C8
:1019A4000FC0ADFF1200016ED9EF0CF00000ACA225
:1019B400DEEF0CF0E0EF0CF0D8EF0CF001C0ADFF5F
:1019C40012000CEC0BF0000E176E010E166E5FEC9D
:1019D4000BF0010EB9EC0CF0F28A1200FF0E162483
:1019E400186EFF0E1720196E18C061F019C062F04E
:0B19F400636A646A120014001E000306
:021A00001200D2
:020000040020DA
:08000000FFFFFFFFFFFFFFFF00
:020000040030CA
:0E000000FF08191EFF8181FF0FC00FE00F40A7
:00000001FF
